S017000054494D45525F7465737463617365732E737265635E
S11300000C946A000C9487000C9487000C9487006D
S11300100C94E40E0C946D0E0C9487000C94420E18
S11300200C9487000C94D10D0C94A70D0C94300DF6
S11300300C9487000C9487000C9487000C94870020
S11300400C9487000C9487000C9487000C94870010
S11300500C948700AC00BE00D000E200F40006015E
S113006018012A013C014F016101730185019701C7
S1130070A901BB01CD01DF01F10103021502270231
S113008039024B0250026202740286029802AA02EA
S1130090BC02CE0298039E03A403AA03B003B603D2
S11300A0BC03C203C703CD03D303D903DF03E503B2
S11300B0EB03F103F603FC03020408040E04140426
S11300C01A04200425042B04310437043D0443049A
S11300D049044F0411241FBECFE5D8E0DEBFCDBFD5
S11300E010E0A0E6B0E0EEEAF5E202C005900D9261
S11300F0A038B107D9F720E0A0E8B0E001C01D9214
S1130100A63AB207E1F70E9460040C94D5120C944D
S113011000001F93CF93DF93A0E6B0E02CE630E01D
S113012080E011E0ED01EC91E03208F0C8C21196D4
S11301309C911197923008F0C2C2CA81C23008F073
S1130140BEC24E2F50E04032510508F039C2FA01C8
S1130150E65DFF4F0C94FD11913019F4D09A812F74
S1130160AEC291112FC2C13021F4D098D89A812FF8
S1130170A6C2C11129C2D098812FA1C2913019F40D
S1130180D19A812F9CC2911121C2C13021F4D198FE
S1130190D99A812F94C2C1111BC2D198812F8FC2C9
S11301A0913019F4D29A812F8AC2911113C2C130AD
S11301B021F4D298DA9A812F82C2C1110DC2D29849
S11301C0812F7DC2913019F4D39A812F78C2911175
S11301D005C2C13021F4D398DB9A812F70C2C111BA
S11301E0FFC1D398812F6BC2913019F4D49A812F17
S11301F066C29111F7C1C13021F4D498DC9A812FE1
S11302005EC2C111F1C1D498812F59C2913019F441
S1130210D59A812F54C29111E9C1C13021F4D598E6
S1130220DD9A812F4CC2C111E3C1D598812F47C2F9
S1130230913019F4D69A812F42C29111DBC1C13099
S113024021F4D698DE9A812F3AC2C111D5C1D6982D
S1130250812F35C2913019F4D79A812F30C2911170
S1130260CDC1C13021F4D798DF9A812F28C2C111A2
S1130270C7C1D798812F23C2913021F487B387BB9C
S1130280812F1DC29111BEC1C13021F4B898C09A0A
S1130290812F15C2C111B8C1B898812F10C29130F5
S11302A019F4B99A812F0BC29111B0C1C13021F454
S11302B0B998C19A812F03C2C111AAC1B998812FDB
S11302C0FEC1913019F4BA9A812FF9C19111A2C1DA
S11302D0C13021F4BA98C29A812FF1C1C1119CC1D5
S11302E0BA98812FECC1913019F4BB9A812FE7C1E0
S11302F0911194C1C13021F4BB98C39A812FDFC1FD
S1130300C1118EC1BB98812FDAC1913019F4BC9A06
S1130310812FD5C1911186C1C13021F4BC98C49AF2
S1130320812FCDC1C11180C1BC98812FC8C191302A
S113033019F4BD9A812FC3C1911178C1C13021F440
S1130340BD98C59A812FBBC1C11172C1BD98812FBF
S1130350B6C1913019F4BE9A812FB1C191116AC10D
S1130360C13021F4BE98C69A812FA9C1C11164C1BC
S1130370BE98812FA4C1913019F4BF9A812F9FC1D7
S113038091115CC1C13021F4BF98C79A812F97C1E4
S1130390C11156C1BF98812F92C1913019F4A09A0E
S11303A0812F8DC191114EC1C13021F4A098A89A1A
S11303B0812F85C1C11148C1A098812F80C191307E
S11303C019F4A19A812F7BC1911140C1C13021F44C
S11303D0A198A99A812F73C1C1113AC1A198812F03
S11303E06EC1913019F4A29A812F69C1911132C161
S11303F0C13021F4A298AA9A812F61C1C1112CC1E4
S1130400A298812F5CC1913019F4A39A812F57C10E
S1130410911124C1C13021F4A398AB9A812F4FC10B
S1130420C1111EC1A398812F4AC1913019F4A49A15
S1130430812F45C1911116C1C13021F4A498AC9A01
S1130440812F3DC1C11110C1A498812F38C19130B1
S113045019F4A59A812F33C1911108C1C13021F437
S1130460A598AD9A812F2BC1C11102C1A598812FE6
S113047026C1913019F4A69A812F21C19111FAC095
S1130480C13021F4A698AE9A812F19C1C111F4C0CC
S1130490A698812F14C19111F1C0A79A812F0FC181
S11304A0913019F4889A812F0AC19111E9C0C130A1
S11304B021F48898909A812F02C1C111E3C08898D1
S11304C0812FFDC0913019F4899A812FF8C09111C0
S11304D0DBC0C13021F48998919A812FF0C0C111F9
S11304E0D5C08998812FEBC0913019F48A9A812F55
S11304F0E6C09111CDC0C13021F48A98929A812F1F
S1130500DEC0C111C7C08A98812FD9C0913019F4B7
S11305108B9A812FD4C09111BFC0C13021F48B9824
S1130520939A812FCCC0C111B9C08B98812FC7C0B9
S1130530913019F48C9A812FC2C09111B1C0C1308D
S113054021F48C98949A812FBAC0C111ABC08C98B5
S1130550812FB5C0913019F48D9A812FB0C09111BB
S1130560A3C0C13021F48D98959A812FA8C0C111E0
S11305709DC08D98812FA3C0913019F48E9A812F3C
S11305809EC0911195C0C13021F48E98969A812F06
S113059096C0C1118FC08E98812F91C0913019F4EB
S11305A08F9A812F8CC0911187C0C13021F48F980C
S11305B0979A812F84C0C11181C08F98812F7FC0E9
S11305C0812F7DC0812F7BC0812F79C0812F77C07F
S11305D0812F75C0812F73C0812F71C0812F6FC08F
S11305E0812F6DC0812F6BC0812F69C0812F67C09F
S11305F0812F65C0812F63C0812F61C0812F5FC0AF
S1130600812F5DC0812F5BC0812F59C0812F57C0BE
S1130610812F55C0812F53C0812F51C0812F4FC0CE
S1130620812F4DC0812F4BC0812F49C0812F47C0DE
S1130630812F45C0812F43C0812F41C0812F3FC0EE
S1130640812F3DC0812F3BC0812F39C0812F37C0FE
S1130650812F35C0812F33C0812F31C0812F2FC00E
S1130660812F2DC0812F2BC0812F29C0812F27C01E
S1130670812F25C0812F23C0812F21C0812F1FC02E
S1130680812F1DC0812F1BC0812F19C0812F17C03E
S1130690812F15C0812F13C0812F11C0812F0FC04E
S11306A0812F0DC0812F0BC0812F09C0812F07C05E
S11306B0812F05C0812F03C0812F01C0812F139684
S11306C0A217B30709F02ECDDF91CF911F910895A2
S11306D090E0FC01EE0FFF1FE80FF91FE05AFF4FF7
S11306E0E081E03208F0E0C0DC01AA0FBB1FA80FD4
S11306F0B91FA05ABF4F11962C91223008F0D6C0D2
S1130700DC01AA0FBB1F8A0F9B1FDC01A05ABF4F3D
S113071012968C91823008F0CBC08E2F90E08032FC
S1130720910508F0C7C0FC01E65BFF4F0C94FD1176
S11307309BB381E089278BBB81E008959BB382E062
S113074089278BBB81E008959BB384E089278BBB09
S113075081E008959BB388E089278BBB81E00895ED
S11307609BB380E189278BBB81E008959BB380E232
S113077089278BBB81E008959BB384E089278BBBD9
S113078081E008958BB380588BBB81E0089598B3C2
S113079081E0892788BB81E0089598B382E08927A6
S11307A088BB81E0089598B384E0892788BB81E001
S11307B0089598B388E0892788BB81E0089598B3A9
S11307C080E1892788BB81E0089598B380E2892776
S11307D088BB81E0089598B380E4892788BB81E0D1
S11307E0089588B3805888BB81E0089595B381E06B
S11307F0892785BB81E0089595B382E0892785BB6D
S113080081E0089595B384E0892785BB81E008954C
S113081095B388E0892785BB81E0089595B380E18D
S1130820892785BB81E0089595B380E2892785BB3C
S113083081E0089595B380E4892785BB81E008951C
S113084085B3805885BB81E0089592B381E0892700
S113085082BB81E0089592B382E0892782BB81E064
S1130860089592B384E0892782BB81E0089592B30E
S113087088E0892782BB81E0089592B380E18927CB
S113088082BB81E0089592B380E2892782BB81E034
S1130890089592B380E4892782BB81E0089582B3EE
S11308A0805882BB81E0089580E0089580E0089537
S11308B080E0089581E0089581E00E94680308952E
S11308C00E9489000E940E0F0E9477042CE534E0F8
S11308D040E452E46FE070E080E090E00E948F0416
S11308E080E090E00E94AF0480E090E008950E94D0
S11308F0C704813049F48CE690E00E94340F8DE007
S113090090E00E94260F0895811108C081E790E0CD
S11309100E94340F8DE090E00E94260F0895EF921C
S1130920FF920F931F930E94C308813049F48CE611
S113093090E00E94340F8DE090E00E94260F0AC0E0
S1130940811108C081E790E00E94340F8DE090E0AF
S11309500E94260F1F910F91FF90EF9008950E941F
S1130960280B813049F48CE690E00E94340F8DE02E
S113097090E00E94260F0895811108C081E790E05D
S11309800E94340F8DE090E00E94260F089580911C
S11309907800833008F0DFC390917900943008F038
S11309A0DCC320917A00283028F0203219F0293055
S11309B009F0D5C330917B00323008F0D2C34091A6
S11309C07C00443008F0CFC340917D00443008F0EF
S11309D0CCC340917E00443008F0C9C381110BC1DF
S11309E0911111C083B78F7B83BF83B7877F83BF88
S11309F0311104C089B78E7F89BF57C0789489B7F5
S1130A00816089BF52C0913009F03EC083B78F7BAB
S1130A1083BF83B7886083BF80917B00811104C04A
S1130A2089B78D7F89BF04C0789489B7826089BFF4
S1130A3080917C00811107C083B78F7D83BF83B70A
S1130A408F7E83BF32C0813049F483B78F7D83BFEB
S1130A5083B7806183BF0E94890027C0823049F434
S1130A6083B7806283BF83B78F7E83BF0E94890070
S1130A701CC08330D1F483B7806283BF83B78061A5
S1130A8083BF0E94890011C0923039F483B7806417
S1130A9083BF83B7886083BF08C0933031F483B7C2
S1130AA0806483BF83B7877F83BF80917A0081117D
S1130AB00BC083B78B7F83BF83B78D7F83BF83B71F
S1130AC08E7F83BF81E008958130B1F483B78B7F3B
S1130AD083BF83B78D7F83BF83B7816083BF81E08A
S1130AE090E0A0E0B0E080939A0090939B00A093E4
S1130AF09C00B0939D0008958230B9F483B78B7F36
S1130B0083BF83B7826083BF83B78E7F83BF88E050
S1130B1090E0A0E0B0E080939A0090939B00A093B3
S1130B209C00B0939D0081E008958330B9F483B7AD
S1130B308B7F83BF83B7826083BF83B7816083BFAA
S1130B4080E490E0A0E0B0E080939A0090939B0052
S1130B50A0939C00B0939D0081E008958430B9F483
S1130B6083B7846083BF83B78D7F83BF83B78E7F52
S1130B7083BF80E091E0A0E0B0E080939A0090937E
S1130B809B00A0939C00B0939D0081E00895853064
S1130B90B9F483B7846083BF83B78D7F83BF83B782
S1130BA0816083BF80E094E0A0E0B0E080939A008D
S1130BB090939B00A0939C00B0939D0081E00895C6
S1130BC0863059F483B7846083BF83B7826083BF60
S1130BD083B78E7F83BF81E00895873009F0C9C24F
S1130BE083B7846083BF83B7826083BF83B7816028
S1130BF083BF81E00895813009F0A0C19111AAC09A
S1130C0021110AC08EB58B7F8EBD8EB58D7F8EBDB2
S1130C108EB58E7F8EBD8FC02130B1F48EB58B7FA3
S1130C208EBD8EB58D7F8EBD8EB581608EBD81E00B
S1130C3090E0A0E0B0E080939A0090939B00A09392
S1130C409C00B0939D0077C02230B1F48EB58B7FA9
S1130C508EBD8EB582608EBD8EB58E7F8EBD88E0D2
S1130C6090E0A0E0B0E080939A0090939B00A09362
S1130C709C00B0939D005FC02330B1F48EB58B7F90
S1130C808EBD8EB582608EBD8EB581608EBD80E4D2
S1130C9090E0A0E0B0E080939A0090939B00A09332
S1130CA09C00B0939D0047C02430B1F48EB584609D
S1130CB08EBD8EB58D7F8EBD8EB58E7F8EBD80E050
S1130CC091E0A0E0B0E080939A0090939B00A09301
S1130CD09C00B0939D002FC02530B1F48EB5846084
S1130CE08EBD8EB58D7F8EBD8EB581608EBD80E04C
S1130CF094E0A0E0B0E080939A0090939B00A093CE
S1130D009C00B0939D0017C0263051F48EB58460CA
S1130D108EBD8EB582608EBD8EB58E7F8EBD0BC0AE
S1130D20273049F48EB584608EBD8EB582608EBD49
S1130D308EB581608EBD80917B00811105C089B71D
S1130D408B7F89BF81E00895789489B7846089BFD7
S1130D5081E00895913009F00EC2311104C089B7C1
S1130D608F7E89BF06C0313021F4789489B78061C1
S1130D7089BF80917A0081110AC08EB58B7F8EBDA8
S1130D808EB58D7F8EBD8EB58E7F8EBD8FC081302A
S1130D90B1F48EB58B7F8EBD8EB58D7F8EBD8EB535
S1130DA081608EBD81E090E0A0E0B0E080939A0085
S1130DB090939B00A0939C00B0939D0077C08230D9
S1130DC0B1F48EB58B7F8EBD8EB582608EBD8EB52F
S1130DD08E7F8EBD88E090E0A0E0B0E080939A0022
S1130DE090939B00A0939C00B0939D005FC08330C0
S1130DF0B1F48EB58B7F8EBD8EB582608EBD8EB5FF
S1130E0081608EBD80E490E0A0E0B0E080939A0021
S1130E1090939B00A0939C00B0939D0047C08430A6
S1130E20B1F48EB584608EBD8EB58D7F8EBD8EB5CA
S1130E308E7F8EBD80E091E0A0E0B0E080939A00C8
S1130E4090939B00A0939C00B0939D002FC085308D
S1130E50B1F48EB584608EBD8EB58D7F8EBD8EB59A
S1130E6081608EBD80E094E0A0E0B0E080939A00C1
S1130E7090939B00A0939C00B0939D0017C0863074
S1130E8051F48EB584608EBD8EB582608EBD8EB5F4
S1130E908E7F8EBD0BC0873049F48EB584608EBDC5
S1130EA08EB582608EBD8EB581608EBD80917D00D1
S1130EB081110DC08FB58F778FBD8FB58F7B8FBD9F
S1130EC08FB58F7D8FBD8FB58F7E8FBD32C0813042
S1130ED079F48FB58F778FBD8FB580648FBD8FB553
S1130EE08F7D8FBD8FB580618FBD0E94890021C029
S1130EF0823079F48FB580688FBD8FB58F7B8FBDBD
S1130F008FB580628FBD8FB58F7E8FBD0E948900A3
S1130F1010C0833071F48FB580688FBD8FB5806445
S1130F208FBD8FB580628FBD8FB580618FBD0E94EC
S1130F3089008EB588608EBD81E00895823009F005
S1130F401CC121110AC085B58B7F85BD85B58D7FF8
S1130F5085BD85B58E7F85BDA7C02130B1F485B52B
S1130F608B7F85BD85B58D7F85BD85B5816085BD4C
S1130F7081E090E0A0E0B0E080939A0090939B0021
S1130F80A0939C00B0939D008FC02230B1F485B52E
S1130F908B7F85BD85B5826085BD85B58E7F85BD1A
S1130FA088E090E0A0E0B0E080939A0090939B00EA
S1130FB0A0939C00B0939D0077C02830B1F485B510
S1130FC08B7F85BD85B5826085BD85B5816085BD16
S1130FD080E290E0A0E0B0E080939A0090939B00C0
S1130FE0A0939C00B0939D005FC02330B1F485B5FD
S1130FF0846085BD85B58D7F85BD85B58E7F85BDB6
S113100080E490E0A0E0B0E080939A0090939B008D
S1131010A0939C00B0939D0047C02930B1F485B5DE
S1131020846085BD85B58D7F85BD85B5816085BDB1
S113103080E890E0A0E0B0E080939A0090939B0059
S1131040A0939C00B0939D002FC02430B1F485B5CB
S1131050846085BD85B5826085BD85B58E7F85BD7F
S113106080E091E0A0E0B0E080939A0090939B0030
S1131070A0939C00B0939D0017C02530A9F485B5BA
S1131080846085BD85B5826085BD85B5816085BD7B
S113109080E094E0A0E0B0E080939A0090939B00FD
S11310A0A0939C00B0939D008091790081110FC0A2
S11310B080917B00811105C089B78F7B89BF81E056
S11310C00895789489B7806489BF81E00895813058
S11310D009F055C085B5886085BD80917B0081117C
S11310E004C089B78F7789BF04C0789489B78068B2
S11310F089BF80917E00811108C085B58F7D85BD33
S113110085B58F7E85BD81E0089580917C00813016
S113111051F485B58F7D85BD85B5806185BD0E94FF
S1131120890081E00895823051F485B5806285BDDF
S113113085B58F7E85BD0E94890081E00895833046
S113114001F585B5806285BD85B5806185BD0E9448
S1131150890081E0089580E0089580E0089580E0AA
S1131160089580E0089580E0089580E0089580E087
S1131170089581E0089581E0089581E0089581E073
S1131180089581E008952F923F924F925F926F925B
S11311907F928F929F92AF92BF92CF92DF92EF9203
S11311A0FF920F931F93CF93DF93CDB7DEB764976E
S11311B00FB6F894DEBF0FBECDBFE82FF0E097E086
S11311C0899FD0011124A858BF4FAC90AB8A9A2DA7
S11311D0933008F015C2DF01AA0FBB1FAA0FBB1F73
S11311E0AA0FBB1FAE1BBF0BA858BF4F1196AC90E4
S11311F0AC8A9A2D943008F005C2DF01AA0FBB1FF8
S1131200AA0FBB1FAA0FBB1FAE1BBF0BA858BF4F13
S113121012969C91983028F0903219F0993009F088
S1131220F3C1DF01AA0FBB1FAA0FBB1FAA0FBB1F6D
S1131230AE1BBF0BA858BF4F13969C91923008F079
S1131240E5C1DF01AA0FBB1FAA0FBB1FAA0FBB1F5B
S1131250AE1BBF0BA858BF4F14969C91943008F056
S1131260D7C1DF01AA0FBB1FAA0FBB1FAA0FBB1F49
S1131270AE1BBF0BA858BF4F15969C91943008F035
S1131280C9C1DF01AA0FBB1FAA0FBB1FAA0FBB1F37
S11312905D01AE1ABF0AF501E858FF4F96819430FC
S11312A008F0BAC18111BAC1FA8AE98A7C876B87CE
S11312B05A874987932E822E312E202E0093960032
S11312C010939700809298009092990040909A0011
S11312D050909B0060909C0070909D00A30192012F
S11312E060E472E48FE090E00E94CB116D877E870A
S11312F08F87988BA12C0F2EF2E1BF2EF02D0F2E8D
S1131300FAE7CF2EF02DD12CE12CF12C00E010E0E7
S1131310222D332D482D592D69857A858B859C8501
S11313200E940E12CD84DE84EF84F8885601670192
S1131330E12CF12C8701A982BA82CB82DC82ED8276
S1131340FE820F831887E12CF12C00E010E00E944C
S113135069120E94A6106B017C0160939E00709339
S11313609F008093A0009093A1000B8901117FC07E
S11313701C89111150C020E030E040E853E40E9481
S1131380351188239CF020E030E040E85BE3C7019E
S1131390B6010E943A110E943A106093A200709321
S11313A0A3008093A4009093A50022C1222D332D85
S11313B0482D592D69857A858B859C850E94A610B8
S11313C06B017C01C301B20120E032E14AE750E045
S11313D00E94DB11942F832F722F66270E946910BD
S11313E020E034E244E759E40E943A119B01AC0145
S11313F0C701B6010E94C80F9B01AC0160E070E018
S11314008FE793E40E945B0F0E943A1062BF81E071
S113141080939200EDC08C89813009F0E9C060E0CE
S113142072E18AE790E02D853E854F8558890E94B8
S1131430DB1159016A01E12CF12C87012983BA825D
S1131440CB82DC82ED82FE820F831887E12CF12CA3
S113145000E010E0222D332D482D592D69857A8521
S11314608B859C850E9469122CBF12BEC1C00B895A
S11314700130D9F51C8911112BC020E030E040E87F
S113148057E40E94351188239CF020E030E040E8C6
S113149057E3C701B6010E943A110E943A106093C3
S11314A0A2007093A3008093A4009093A500A0C011
S11314B0A701960160E07FEF8FE797E40E945B0F3E
S11314C00E943A107DBD6CBD81E08093910090C074
S11314D08C89813009F08CC0C701B6010E943A1092
S11314E07BBD6ABD1DBC1CBC83C09B89923009F0C6
S11314F07FC0AC88A11052C020E030E040E853E443
S1131500C701B6010E94351188239CF020E030E029
S113151040E85BE3C701B6010E943A110E943A1009
S11315206093A2007093A3008093A4009093A500FD
S11315305FC0222D332D482D592D69857A858B85E1
S11315409C850E94A6106B017C01C301B20120E0BE
S113155032E14AE750E00E94DB11942F832F722F6F
S113156066270E94691020E034E244E759E40E94AF
S11315703A119B01AC01C701B6010E94C80F9B013F
S1131580AC0160E070E08FE793E40E945B0F0E947F
S11315903A1064BD81E0809390002AC00C89013028
S11315A039F560E072E18AE790E02D853E854F854C
S11315B058890E94DB1159016A01E12CF12C870141
S11315C02983BA82CB82DC82ED82FE820F83188764
S11315D0E12CF12C00E010E0222D332D482D592D63
S11315E069857A858B859C850E94691223BD14BC0C
S11315F0C988DA88D0929400C092930081E00FC029
S113160080E00DC080E00BC080E009C080E007C02E
S113161080E005C080E003C080E001C080E0649603
S11316200FB6F894DEBF0FBECDBFDF91CF911F91EF
S11316300F91FF90EF90DF90CF90BF90AF909F906D
S11316408F907F906F905F904F903F902F90089570
S1131650282F30E097E0899FF0011124E858FF4FCC
S11316609081933008F0DEC1F901EE0FFF1FEE0FF9
S1131670FF1FEE0FFF1FE21BF30BE858FF4F4181E2
S1131680443008F0D1C1F901EE0FFF1FEE0FFF1F28
S1131690EE0FFF1FE21BF30BE858FF4F5281583047
S11316A028F0503219F0593009F0C0C1F901EE0F99
S11316B0FF1FEE0FFF1FEE0FFF1FE21BF30BE85897
S11316C0FF4F5381523008F0B3C1F901EE0FFF1FF1
S11316D0EE0FFF1FEE0FFF1FE21BF30BE858FF4F47
S11316E06481643008F0A6C1F901EE0FFF1FEE0F0C
S11316F0FF1FEE0FFF1FE21BF30BE858FF4F65813E
S1131700643008F099C1F901EE0FFF1FEE0FFF1FBF
S1131710EE0FFF1FE21BF30BE858FF4F2681243026
S113172008F08CC181118CC151118CC1411146C189
S1131730911169C080919200813071F508B600FE64
S1131740FDCFE0919300F0919400099520E030E002
S113175040E853E460919E0070919F008091A00046
S11317609091A1000E943A119B01AC0160E070E0ED
S113177080E893E40E945B0F9B01AC0160E070E0A1
S113178080E893E40E945B0F0E943A1062BF88B71E
S1131790816088BF81E0089508B600FEFDCF12BEC7
S11317A088B7816088BF80918C0090918D00A09152
S11317B08E00B0918F000196A11DB11D80938C0005
S11317C090938D00A0938E00B0938F004091A2005F
S11317D05091A3006091A4007091A500841795070F
S11317E0A607B70709F030C1E0919300F091940087
S11317F0099510928C0010928D0010928E00109218
S11318008F0081E00895913009F06BC080919100C0
S1131810813079F508B602FEFDCFE0919300F09196
S11318209400099520E03FEF4FE757E460919E0054
S113183070919F008091A0009091A1000E943A11A4
S11318409B01AC0160E07FEF8FE797E40E945B0FA0
S11318509B01AC0160E070E080E897E40E945B0FBC
S11318600E943A107DBD6CBD88B7846088BF81E05A
S1131870089508B602FEFDCF1DBC1CBC88B7846069
S113188088BF80918C0090918D00A0918E00B091C2
S11318908F000196A11DB11D80938C0090938D0043
S11318A0A0938E00B0938F004091A2005091A300AA
S11318B06091A4007091A50084179507A607B70747
S11318C009F0C4C0E0919300F0919400099510923E
S11318D08C0010928D0010928E0010928F0081E087
S11318E00895923009F0B4C080919000813079F568
S11318F008B600FEFDCFE0919300F09194000995A5
S113190020E030E040E853E460919E0070919F0035
S11319108091A0009091A1000E943A119B01AC011A
S113192060E070E080E893E40E945B0F9B01AC01EF
S113193060E070E080E893E40E945B0F0E943A103C
S11319407DBD6CBD88B7816088BF81E0089508B60D
S113195006FEFDCF14BC88B7806488BF80918C00DC
S113196090918D00A0918E00B0918F000196A11DE1
S1131970B11D80938C0090938D00A0938E00B09342
S11319808F004091A2005091A3006091A400709137
S1131990A50084179507A607B70709F05BC0E09177
S11319A09300F0919400099510928C0010928D0090
S11319B010928E0010928F0081E00895413009F05A
S11319C04BC091110EC008B601FEFDCFE09193000B
S11319D0F0919400099512BE88B7826088BF81E0B7
S11319E00895913079F408B604FEFDCFE091930098
S11319F0F091940009951DBC1CBC88B7806188BF18
S1131A0081E00895923051F508B607FEFDCFE091CC
S1131A109300F0919400099514BC88B7806888BF3E
S1131A2081E0089580E0089580E0089580E00895BD
S1131A3080E0089580E0089580E0089580E00895AE
S1131A4080E0089581E0089581E0089581E008959B
S1131A5081E0089581E0089581E0089581E008958A
S1131A601F920F920FB60F9211242F933F934F930F
S1131A705F936F937F938F939F93AF93BF93EF93F2
S1131A80FF93E0919300F0919400309709F44EC0D5
S1131A9080919200811130C08091880090918900DA
S1131AA0A0918A00B0918B004091A2005091A300B4
S1131AB06091A4007091A50084179507A607B70745
S1131AC079F4109288001092890010928A00109282
S1131AD08B0012BEE0919300F0919400099526C00A
S1131AE00196A11DB11D8093880090938900A09355
S1131AF08A00B0938B001AC0099520E030E040E8DA
S1131B0053E460919E0070919F008091A000909199
S1131B10A1000E943A119B01AC0160E070E080E8F2
S1131B2093E40E945B0F0E943A1062BFFF91EF9111
S1131B30BF91AF919F918F917F916F915F914F91E1
S1131B403F912F910F900FBE0F901F9018951F92E9
S1131B500F920FB60F9211242F933F934F935F93DD
S1131B606F937F938F939F93AF93BF93EF93FF9361
S1131B70E0919300F0919400309711F0099512BE12
S1131B80FF91EF91BF91AF919F918F917F916F9151
S1131B905F914F913F912F910F900FBE0F901F9027
S1131BA018951F920F920FB60F9211242F933F9303
S1131BB04F935F936F937F938F939F93AF93BF9351
S1131BC0EF93FF93E0919300F0919400309709F420
S1131BD048C080919100811131C08091840090911E
S1131BE08500A0918600B09187004091A200509199
S1131BF0A3006091A4007091A50084179507A6071F
S1131C00B70781F410928400109285001092860028
S1131C10109287001DBC1CBCE0919300F0919400CD
S1131C2009951FC00196A11DB11D80938400909356
S1131C308500A0938600B093870013C00995209176
S1131C409E0030919F004091A0005091A10060E05F
S1131C507FEF8FE797E40E945B0F0E943A107DBDEF
S1131C606CBDFF91EF91BF91AF919F918F917F9147
S1131C706F915F914F913F912F910F900FBE0F90F5
S1131C801F9018951F920F920FB60F9211242F9345
S1131C903F934F935F936F937F938F939F93AF93F0
S1131CA0BF93EF93FF93E0919300F09194003097EA
S1131CB019F009951DBC1CBCFF91EF91BF91AF9128
S1131CC09F918F917F916F915F914F913F912F9150
S1131CD00F900FBE0F901F9018951F920F920FB682
S1131CE00F9211242F933F934F935F936F937F939E
S1131CF08F939F93AF93BF93EF93FF93E0919300E0
S1131D00F0919400309709F44EC0809190008111B5
S1131D1030C08091800090918100A0918200B091A8
S1131D2083004091A2005091A3006091A40070919F
S1131D30A50084179507A607B70779F410928000C9
S1131D4010928100109282001092830014BCE091E2
S1131D509300F0919400099526C00196A11DB11D30
S1131D608093800090938100A0938200B0938300BD
S1131D701AC0099520E030E040E853E460919E00E9
S1131D8070919F008091A0009091A1000E943A114F
S1131D909B01AC0160E070E080E893E40E945B0F7B
S1131DA00E943A1064BDFF91EF91BF91AF919F9152
S1131DB08F917F916F915F914F913F912F910F90F0
S1131DC00FBE0F901F9018951F920F920FB60F928F
S1131DD011242F933F934F935F936F937F938F932C
S1131DE09F93AF93BF93EF93FF93E0919300F09190
S1131DF09400309711F0099514BCFF91EF91BF91B5
S1131E00AF919F918F917F916F915F914F913F918E
S1131E102F910F900FBE0F901F90189510BC83E365
S1131E2089B988E18AB980B5846080BD80B5826053
S1131E3080BD80B58F7D80BD80B58F7E80BD80B52F
S1131E40877F80BD81E0809395000895982F8091CD
S1131E509500882341F081E0809395005D9BFECF3F
S1131E609CB9809195000895EF92FF920F931F9370
S1131E70CF93DF937C01809195008823A9F081E0C2
S1131E8080939500E7018FEFE80EF11C8E01899194
S1131E9090E00E94260FF8019081992319F0CE1545
S1131EA0DF05A1F780919500DF91CF911F910F91EC
S1131EB0FF90EF9008955058BB27AA270E94730FF4
S1131EC00C94FB100E94ED1038F00E94F41020F0E6
S1131ED039F49F3F19F426F40C94EA100EF4E095BB
S1131EE0E7FB0C94E410E92F0E940C1158F3BA1785
S1131EF0620773078407950720F079F4A6F50C941C
S1131F002E110EF4E0950B2EBA2FA02D0B01B90162
S1131F1090010C01CA01A0011124FF27591B99F05B
S1131F20593F50F4503E68F11A16F040A22F232F67
S1131F30342F4427585FF3CF469537952795A795B7
S1131F40F0405395C9F77EF41F16BA0B620B730B5E
S1131F50840BBAF09150A1F0FF0FBB1F661F771FCF
S1131F60881FC2F70EC0BA0F621F731F841F48F484
S1131F70879577956795B795F7959E3F08F0B0CF0D
S1131F809395880F08F09927EE0F979587950895F4
S1131F900E94DC0F0C94FB100E94F41058F00E9475
S1131FA0ED1040F029F45F3F29F00C94E410511136
S1131FB00C942F110C94EA100E940C1168F39923CD
S1131FC0B1F3552391F3951B550BBB27AA27621731
S1131FD07307840738F09F5F5F4F220F331F441F3E
S1131FE0AA1FA9F335D00E2E3AF0E0E832D0915072
S1131FF05040E695001CCAF72BD0FE2F29D0660F5F
S1132000771F881FBB1F261737074807AB07B0E8A1
S113201009F0BB0B802DBF01FF2793585F4F3AF0A7
S11320209E3F510578F00C94E4100C942F115F3FFF
S1132030E4F3983ED4F3869577956795B795F7952D
S11320409F5FC9F7880F911D9695879597F9089515
S1132050E1E0660F771F881FBB1F621773078407B1
S1132060BA0720F0621B730B840BBA0BEE1F88F7C0
S1132070E09508950E94141188F09F5798F0B92FA5
S11320809927B751B0F0E1F0660F771F881F991FA9
S11320901AF0BA95C9F714C0B13091F00E942E110C
S11320A0B1E008950C942E11672F782F8827B85F1C
S11320B039F0B93FCCF3869577956795B395D9F701
S11320C03EF490958095709561957F4F8F4F9F4F0B
S11320D00895E89409C097FB3EF490958095709517
S11320E061957F4F8F4F9F4F9923A9F0F92F96E960
S11320F0BB279395F695879577956795B795F111D5
S1132100F8CFFAF4BB0F11F460FF1BC06F5F7F4F71
S11321108F4F9F4F16C0882311F096E911C0772383
S113212021F09EE8872F762F05C0662371F096E88C
S1132130862F70E060E02AF09A95660F771F881F5B
S1132140DAF7880F9695879597F90895E894F92F0B
S113215096EBFF2381F0121613061406440B939595
S1132160F69587957795679557954040FF23B9F77E
S11321701BC099270895882351F49850D2F7872BD0
S1132180762F652F542F432F322F20E0B1F31216F0
S113219013061406440B88233AF09A95440F551FEE
S11321A0661F771F881FCAF755234AF4440F551F2B
S11321B011F460FF04C06F5F7F4F8F4F9F4F880FF4
S11321C09695879597F9089597F99F6780E870E049
S11321D060E008959FEF80EC089500240A94161699
S11321E0170618060906089500240A941216130601
S11321F0140605060895092E0394000C11F488238F
S113220052F0BB0F40F4BF2B11F460FF04C06F5FAA
S11322107F4F8F4F9F4F089557FD9058440F551F80
S113222059F05F3F71F04795880F97FB991F61F054
S11322309F3F79F087950895121613061406551FCB
S1132240F2CF4695F1DF08C0161617061806991F37
S1132250F1CF86957105610508940895E894BB272C
S113226066277727CB0197F908950E94A71108F4F0
S11322708FEF08950E944D110C94FB100E94ED10F5
S113228038F00E94F41020F0952311F00C94E4101F
S11322900C94EA1011240C942F110E940C1170F369
S11322A0959FC1F3950F50E0551F629FF001729FF7
S11322B0BB27F00DB11D639FAA27F00DB11DAA1F06
S11322C0649F6627B00DA11D661F829F2227B00D53
S11322D0A11D621F739FB00DA11D621F839FA00DDE
S11322E0611D221F749F3327A00D611D231F849F2E
S11322F0600D211D822F762F6A2F11249F57504085
S11323009AF0F1F088234AF0EE0FFF1FBB1F661FFF
S1132310771F881F91505040A9F79E3F510580F0C8
S11323200C94E4100C942F115F3FE4F3983ED4F323
S1132330869577956795B795F795E7959F5FC1F76C
S1132340FE2B880F911D9695879597F90895990FFF
S11323500008550FAA0BE0E8FEEF16161706E8076B
S1132360F907C0F012161306E407F50798F0621B8C
S1132370730B840B950B39F40A2661F0232B242B61
S1132380252B21F408950A2609F4A140A6958FEF80
S1132390811D811D0895DB018F939F930E94031279
S11323A0BF91AF91A29F800D911DA39F900DB29FED
S11323B0900D11240895A1E21A2EAA1BBB1BFD0146
S11323C00DC0AA1FBB1FEE1FFF1FA217B307E40710
S11323D0F50720F0A21BB30BE40BF50B661F771F68
S11323E0881F991F1A9469F7609570958095909548
S11323F09B01AC01BD01CF010895EE0FFF1F0590B5
S1132400F491E02D09940E94C612A59F900DB49FEB
S1132410900DA49F800D911D11240895DF93CF93F7
S11324201F930F939A9DF02D219FF00D8B9DF00D1E
S11324308A9DE02DF10D039FF00D029FE00DF11D2B
S11324404E9DE00DF11D5E9DF00D4F9DF00D7F93AF
S11324506F93BF92AF925F934F93D5010E94C612C0
S11324608B01AC01D7010E94C612EB01E80FF91FE2
S1132470D6010E945E122F913F91D6010E94C6128E
S1132480C60FD71FE81FF91FAF91BF910E945E12BC
S11324902F913F910E94C612C60FD71FE81FF91F44
S11324A0D6010E94C612E60FF71F9801BE01CF01A4
S11324B011240F911F91CF91DF9108950E94C612AC
S11324C0460F571FC81FD91F08F431960895689402
S11324D001C0E8948F929F92CF93DF930E9475126C
S11324E0DF91CF919F908F90089588249924F401CF
S11324F0E401B0E49F93AA279A158B049C04ED058C
S1132500FE05CF05D007A10798F4AD2FDC2FCF2F00
S1132510FE2FE92D982C892E982F872F762F652F43
S1132520542F432F322F2227B85031F7BF9127C0A1
S11325301B2EBF91BB27220F331F441F551F661F3D
S1132540771F881F991F881C991CEE1FFF1FCC1F23
S1132550DD1FAA1FBB1F8A149B04EC05FD05CE05D5
S1132560DF05A007B10748F08A189B08EC09FD09AC
S1132570CE09DF09A00BB10B21601A94E1F62EF409
S11325809401AF01BE01CD01000C0895A29FB001DA
S1132590B39FC001A39F700D811D1124911DB29F93
S11125A0700D811D1124911D0895F894FFCF34
S11325AE0D01000C01001D01001F01005041535389
S11325BE004641494C45440001010501000000005C
S9030000FC
